:100000000C9462000C948A000C948A000C948A0070
:100010000C948A000C948A000C948A000C948A0038
:100020000C948A000C948A000C948A000C948A0028
:100030000C948A000C948A000C948A000C948A0018
:100040000C940B030C948A000C947B030C945503C2
:100050000C948A000C948A000C948A000C948A00F8
:100060000C948A000C948A000000000024002700F1
:100070002A0000000000250028002B0000000000DE
:1000800023002600290004040404040404040202DA
:100090000202020203030303030301020408102007
:1000A0004080010204081020010204081020000012
:1000B0000008000201000003040700000000000027
:1000C0000000FA0411241FBECFEFD8E0DEBFCDBF81
:1000D00011E0A0E0B1E0ECEAFAE002C005900D9278
:1000E000A631B107D9F721E0A6E1B1E001C01D9228
:1000F000AE3BB207E1F710E0C2E6D0E004C02197C2
:10010000FE010E944905C136D107C9F70E94AD031F
:100110000C9454050C940000833081F028F4813055
:1001200099F08230A1F008958730A9F08830B9F0B5
:100130008430D1F4809180008F7D03C08091800055
:100140008F7780938000089584B58F7702C084B53F
:100150008F7D84BD08958091B0008F7703C080911A
:10016000B0008F7D8093B0000895CF93DF93282F48
:1001700030E0F901E255FF4F8491F901E656FF4F57
:10018000D491F901EA57FF4FC491CC2391F081112A
:100190000E948C00EC2FF0E0EE0FFF1FE458FF4FA1
:1001A000A591B491EC91ED2381E090E021F480E001
:1001B00002C080E090E0DF91CF9108951F93CF932C
:1001C000DF93282F30E0F901E255FF4F8491F901C8
:1001D000E656FF4FD491F901EA57FF4FC491CC2363
:1001E000C1F0162F81110E948C00EC2FF0E0EE0F71
:1001F000FF1FEE58FF4FA591B4919FB7F8941111CE
:1002000004C08C91D095D82302C0EC91DE2BDC93F6
:100210009FBFDF91CF911F910895CF93DF9390E01F
:10022000FC01E656FF4F2491FC01EA57FF4F8491F1
:10023000882361F190E0880F991FFC01E859FF4F76
:10024000C591D491FC01EE58FF4FA591B491611175
:1002500009C09FB7F8948881209582238883EC9108
:100260002E230BC0623061F49FB7F8948881322F3F
:10027000309583238883EC912E2B2C939FBF06C04F
:100280008FB7F894E8812E2B28838FBFDF91CF9111
:1002900008953FB7F89480911D0190911E01A0919F
:1002A0001F01B091200126B5A89B05C02F3F19F072
:1002B0000196A11DB11D3FBFBA2FA92F982F8827E6
:1002C000820F911DA11DB11DBC01CD0142E0660F41
:1002D000771F881F991F4A95D1F708958F929F9293
:1002E000AF92BF92CF92DF92EF92FF926B017C01AF
:1002F0000E9449014B015C01C114D104E104F104E5
:10030000F1F00E944901DC01CB0188199909AA0981
:10031000BB09883E9340A105B10570F321E0C21AE4
:10032000D108E108F10888EE880E83E0981EA11C30
:10033000B11CC114D104E104F10419F7DDCFFF9021
:10034000EF90DF90CF90BF90AF909F908F900895E7
:10035000CF92DF92EF92FF920F931F93CF93DF9391
:100360006C017A018B01C0E0D0E0CE15DF0581F091
:10037000D8016D918D01D601ED91FC910190F08134
:10038000E02DC6010995892B11F02196EECF7E0153
:10039000C701DF91CF911F910F91FF90EF90DF90F8
:1003A000CF900895089580E090E00895FC01538D6A
:1003B000448D252F30E0842F90E0821B930B54173F
:1003C00010F0CF96089501970895FC01918D828DCC
:1003D000981761F0828DDF01A80FB11D5D968C9199
:1003E000928D9F5F9F73928F90E008958FEF9FEFA4
:1003F0000895FC01918D828D981731F0828DE80F60
:10040000F11D858D90E008958FEF9FEF0895FC0119
:10041000918D228D892F90E0805C9F4F821B9109E6
:100420008F739927089581E291E00E94070221E0ED
:10043000892B09F420E0822F0895FC01848DDF01CF
:10044000A80FB11DA35ABF4F2C91848D90E0019647
:100450008F739927848FA689B7892C93A089B18936
:100460008C91837080648C93938D848D981306C0D7
:100470000288F389E02D80818F7D80830895EF923B
:10048000FF920F931F93CF93DF93EC0181E0888F4E
:100490009B8D8C8D981305C0E889F989808185FD35
:1004A00026C0F62E0B8D10E00F5F1F4F0F73112724
:1004B000E02E8C8DE8120CC00FB607FCFACFE8894D
:1004C000F989808185FFF5CFCE010E941D02F1CF11
:1004D0008B8DFE01E80FF11DE35AFF4FF0829FB7AD
:1004E000F8940B8FEA89FB89808180620AC09FB7EC
:1004F000F894EE89FF896083E889F98980818370A7
:10050000806480839FBF81E090E0DF91CF911F9155
:100510000F91FF90EF900895CF93DF93EC01888DBA
:100520008823C9F0EA89FB89808185FD05C0A889F7
:10053000B9898C9186FD0FC00FB607FCF5CF80817D
:1005400085FFF2CFA889B9898C9185FFEDCFCE01C7
:100550000E941D02E7CFDF91CF91089580E090E0E7
:10056000892B29F00E94130281110C940000089538
:100570008F929F92AF92BF920F931F93CF93DF936F
:10058000CDB7DEB7A1970FB6F894DEBF0FBECDBFD3
:1005900019A2423008F44AE08E010F5D1F4F842EED
:1005A000912CA12CB12CA50194010E942705E62FC6
:1005B000B901CA0101501109EA3014F4E05D01C02B
:1005C000E95CD801EC93232B242B252B61F7011533
:1005D000110571F0F80101900020E9F73197AF01A2
:1005E000401B510BB80181E291E00E94A80102C0BA
:1005F00080E090E0A1960FB6F894DEBF0FBECDBFAD
:10060000DF91CF911F910F91BF90AF909F908F90EE
:1006100008950E944F051F920F920FB60F9211245A
:100620002F933F938F939F93AF93BF938091190123
:1006300090911A01A0911B01B0911C0130911801F9
:1006400023E0230F2D3720F40196A11DB11D05C015
:1006500026E8230F0296A11DB11D20931801809357
:10066000190190931A01A0931B01B0931C01809172
:100670001D0190911E01A0911F01B09120010196D2
:10068000A11DB11D80931D0190931E01A0931F0118
:10069000B0932001BF91AF919F918F913F912F9186
:1006A0000F900FBE0F901F9018951F920F920FB6CC
:1006B0000F9211242F933F934F935F936F937F93E8
:1006C0008F939F93AF93BF93EF93FF9381E291E05A
:1006D0000E941D02FF91EF91BF91AF919F918F9169
:1006E0007F916F915F914F913F912F910F900FBE2E
:1006F0000F901F9018951F920F920FB60F92112412
:100700002F938F939F93EF93FF93E0913101F0919B
:1007100032018081E0913701F091380182FD12C0F1
:10072000908180913A018F5F8F7320913B018217F6
:1007300051F0E0913A01F0E0EF5DFE4F958F80932C
:100740003A0101C08081FF91EF919F918F912F918C
:100750000F900FBE0F901F901895789484B582600B
:1007600084BD84B5816084BD85B5826085BD85B555
:10077000816085BD80916E00816080936E001092D3
:10078000810080918100826080938100809181004E
:1007900081608093810080918000816080938000DF
:1007A0008091B10084608093B1008091B00081603D
:1007B0008093B00080917A00846080937A00809169
:1007C0007A00826080937A0080917A0081608093C1
:1007D0007A0080917A00806880937A001092C1003C
:1007E00061E084E30E940D0161E083E30E940D015A
:1007F00061E085E30E940D0160E082E30E940D014B
:1008000061E088E10E940D0161E089E10E940D0133
:1008100061E087E10E940D0160E086E10E940D0128
:1008200061E080E30E940D0161E081E30E940D011F
:1008300061E08AE10E940D0161E08BE10E940D01FF
:1008400061E087E10E94DE0061E085E30E94DE0056
:1008500060E084E30E94DE0060E083E30E94DE004B
:1008600060E088E10E94DE0060E089E10E94DE0035
:10087000E0913101F091320182E08083E0912D011D
:10088000F0912E011082E0912F01F09130018FEC58
:10089000808310923901E0913501F091360186E0B4
:1008A0008083E0913301F091340180818061808305
:1008B000E0913301F0913401808188608083E09180
:1008C0003301F0913401808180688083E0913301AD
:1008D000F091340180818F7D808360E081E30E940C
:1008E000DE00109217011092160186E10E94B500F9
:1008F00060E089E10E94DE0061E085E30E94DE00A5
:1009000061E088E10E94DE0064E670E080E090E053
:100910000E946E0160E088E10E94DE00C091160135
:10092000D0911701C630D1050CF05BC061E080E3C7
:100930000E94DE0060E087E10E94DE0061E085E366
:100940000E94DE0086E10E94B500892B71F5CE0180
:10095000019690931701809316016C01092E000CEB
:10096000EE08FF0897FF0EC06DE281E291E00E9461
:100970003F0266277727CB016C197D098E099F09F5
:100980004AE003C04AE0C701B6010E94B80242E053
:1009900050E062E171E081E291E00E94A80160E92B
:1009A00071E080E090E00E946E01809116019091CC
:1009B0001701069709F0B2CF61E087E10E94DE00DF
:1009C00060E080E30E94DE0061E089E10E94DE00D9
:1009D00064E670E080E090E00E946E0160E089E1F2
:1009E0009BCF68EE73E080E090E00E946E010E9471
:1009F000AE0273CFE1E2F1E01382128288EE93E05F
:100A0000A0E0B0E084839583A683B78384E091E07F
:100A10009183808385EC90E09587848784EC90E0D7
:100A20009787868780EC90E0918B808B81EC90E0BB
:100A3000938B828B82EC90E0958B848B86EC90E09C
:100A4000978B868B118E128E138E148E0895A1E2D1
:100A50001A2EAA1BBB1BFD010DC0AA1FBB1FEE1F38
:100A6000FF1FA217B307E407F50720F0A21BB30B83
:100A7000E40BF50B661F771F881F991F1A9469F7FF
:100A800060957095809590959B01AC01BD01CF015B
:100A90000895EE0FFF1F0590F491E02D099481E079
:0C0AA00090E0F8940C945405F894FFCFFB
:100AAC00000000003F02A801D6018C020702E501FC
:060ABC00F9010D0A000023
:107E0000112484B714BE81FFF0D085E080938100F7
:107E100082E08093C00088E18093C10086E0809377
:107E2000C20080E18093C4008EE0C9D0259A86E02C
:107E300020E33CEF91E0309385002093840096BBD3
:107E4000B09BFECF1D9AA8958150A9F7CC24DD24C4
:107E500088248394B5E0AB2EA1E19A2EF3E0BF2EE7
:107E6000A2D0813461F49FD0082FAFD0023811F036
:107E7000013811F484E001C083E08DD089C08234E0
:107E800011F484E103C0853419F485E0A6D080C0E4
:107E9000853579F488D0E82EFF2485D0082F10E0AE
:107EA000102F00270E291F29000F111F8ED06801E7
:107EB0006FC0863521F484E090D080E0DECF843638
:107EC00009F040C070D06FD0082F6DD080E0C81688
:107ED00080E7D80618F4F601B7BEE895C0E0D1E017
:107EE00062D089930C17E1F7F0E0CF16F0E7DF06D8
:107EF00018F0F601B7BEE89568D007B600FCFDCFD4
:107F0000A601A0E0B1E02C9130E011968C91119780
:107F100090E0982F8827822B932B1296FA010C0160
:107F200087BEE89511244E5F5F4FF1E0A038BF0790
:107F300051F7F601A7BEE89507B600FCFDCF97BE46
:107F4000E89526C08437B1F42ED02DD0F82E2BD052
:107F50003CD0F601EF2C8F010F5F1F4F84911BD097
:107F6000EA94F801C1F70894C11CD11CFA94CF0C13
:107F7000D11C0EC0853739F428D08EE10CD085E9AC
:107F80000AD08FE07ACF813511F488E018D01DD067
:107F900080E101D065CF982F8091C00085FFFCCF94
:107FA0009093C60008958091C00087FFFCCF809118
:107FB000C00084FD01C0A8958091C6000895E0E648
:107FC000F0E098E1908380830895EDDF803219F02E
:107FD00088E0F5DFFFCF84E1DECF1F93182FE3DFCA
:107FE0001150E9F7F2DF1F91089580E0E8DFEE27F6
:047FF000FF270994CA
:027FFE00040479
:0400000300007E007B
:00000001FF
