:1000000013C1000023C1000021C100001FC1000076
:100010001DC100001BC1000019C1000017C1000074
:1000200015C1000013C1000011C100000FC1000084
:100030000DC100000BC1000009C1000007C1000094
:1000400005C1000003C1000001C10000FFC00000A5
:10005000FDC00000FBC00000F9C0000087C2000026
:10006000F5C00000F3C00000F1C00000EFC00000C8
:10007000EDC00000EBC00000E9C00000E7C00000D8
:10008000E5C00000E3C00000E1C00000DFC00000E8
:10009000DDC00000DBC00000D9C00000D7C00000F8
:1000A000D5C00000D3C00000D1C00000CFC0000008
:1000B000CDC00000CBC00000C9C00000C7C0000018
:1000C000C5C00000C3C00000C1C00000BFC0000028
:1000D000BDC00000BBC00000B9C00000B7C0000038
:1000E000B5C0000041014401330137013D017B01EE
:1000F00048014C01520156015A0160016401680136
:100100007B016E01720176010000210024002700AE
:100110002A002D0030003300010100000401070116
:100120000A0100002200250028002B002E003100CB
:10013000340002010000050108010B01000020004D
:100140002300260029002C002F00320000010000AF
:10015000030106010901050505050705080808084A
:10016000020202020A0A080804040404010101014F
:10017000010101010303030303030303040707074A
:100180000C0C0C0C0C0C0C0C0202020206060606EF
:10019000060606060B0B0B0B0B0B0B0B01021020BC
:1001A00020080810204010204080020102010804AD
:1001B0000201010204081020408080402010080441
:1001C000020180040201804020100804020108049A
:1001D00002010102040810204080010204081020DE
:1001E000408000000A0B02090C0D0E0807030401F1
:1001F00000000000000000000000000000000000FF
:1002000000000000000000000000000000001211CB
:1002100010000000000000000000000000000000CE
:10022000000000000000000011241FBECFEFD1E24B
:10023000DEBFCDBF00E00CBF22E0A0E0B2E001C015
:100240001D92AB30B207E1F7DBD114C3D9CE90E0F9
:10025000FC013197E231F10508F04DC08827EE58D6
:10026000FF4F8F4FFFC2809180008F7703C0809136
:1002700080008F7D80938000089580918000877F2B
:10028000F9CF84B58F7702C084B58F7D84BD089582
:100290008091B0008F7703C08091B0008F7D8093F4
:1002A000B0000895809190008F7707C080919000F2
:1002B0008F7D03C080919000877F80939000089588
:1002C0008091A0008F7707C08091A0008F7D03C030
:1002D0008091A000877F8093A000089580912001E5
:1002E0008F7707C0809120018F7D03C0809120010E
:1002F000877F809320010895CF93DF93282F30E0EC
:10030000F901EE51FE4F8491F901E456FE4FD4916C
:10031000F901EA5AFE4FC491CC2389F0811197DF8D
:10032000EC2FF0E0EE0FFF1FE45CFE4FA591B491BF
:10033000EC91ED2381E090E021F480E002C080E0C8
:1003400090E0DF91CF9108951F93CF93DF93282FF3
:1003500030E0F901EE51FE4F8491F901E456FE4F71
:10036000D491F901EA5AFE4FC491CC23B9F0162F6B
:1003700081116DDFEC2FF0E0EE0FFF1FEE5DFE4F01
:10038000A591B4919FB7F894111104C08C91D095A8
:10039000D82302C0EC91DE2BDC939FBFDF91CF917D
:1003A0001F910895CF93DF9390E0FC01E456FE4F38
:1003B0002491FC01EA5AFE4F8491882361F190E078
:1003C000880F991FFC01E85FFE4FC591D491FC0195
:1003D000EE5DFE4FA591B491611109C09FB7F894ED
:1003E0008881209582238883EC912E230BC0623074
:1003F00061F49FB7F8948881322F309583238883E6
:10040000EC912E2B2C939FBF06C08FB7F894E881F8
:100410002E2B28838FBFDF91CF9108953FB7F8949B
:100420008091070290910802A0910902B0910A02FE
:1004300026B5A89B05C02F3F19F00196A11DB11D3F
:100440003FBFBA2FA92F982F8827820F911DA11D7A
:10045000B11DBC01CD0142E0660F771F881F991FB7
:100460004A95D1F708958F929F92AF92BF92CF9203
:10047000DF92EF92FF926B017C01D0DF4B015C01B8
:10048000C114D104E104F104E9F0C8DFDC01CB01BF
:1004900088199909AA09BB09883E9340A105B105AD
:1004A00078F321E0C21AD108E108F10888EE880E3D
:1004B00083E0981EA11CB11CC114D104E104F10415
:1004C00021F7DECFFF90EF90DF90CF90BF90AF90FD
:1004D0009F908F900895CF93DF9310920102109216
:1004E000000282E309DF60E083E32EDF61E087E161
:1004F0002BDF61E084E328DF64E670E080E090E0D9
:10050000B2DF60E084E320DFC0910002D0910102FD
:10051000C630D10544F560E085E316DF61E087E190
:1005200013DF82E3E9DE892B51F42196D093010297
:10053000C09300026CE271E080E090E094DF809173
:100540000002909101020697F9F661E085E3FCDE76
:1005500061E083E3F9DE64E670E080E090E083DF51
:1005600060E083E3D0CFDF91CF9108951F920F9287
:100570000FB60F9211242F933F938F939F93AF93B6
:10058000BF938091030290910402A0910502B09163
:1005900006023091020223E0230F2D3720F401964A
:1005A000A11DB11D05C026E8230F0296A11DB11D96
:1005B000209302028093030290930402A093050209
:1005C000B09306028091070290910802A09109025F
:1005D000B0910A020196A11DB11D8093070290936C
:1005E0000802A0930902B0930A02BF91AF919F91B4
:1005F0008F913F912F910F900FBE0F901F901895E4
:10060000789484B5826084BD84B5816084BD85B5ED
:10061000826085BD85B5816085BD80916E008160F9
:1006200080936E001092810080918100826080939F
:1006300081008091810081608093810080918000A1
:100640008160809380008091B10084608093B100CC
:100650008091B00081608093B000809191008260B1
:1006600080939100809191008160809391008091AE
:1006700090008160809390008091A10082608093BF
:10068000A1008091A10081608093A1008091A000D1
:1006900081608093A000809121018260809321017C
:1006A00080912101816080932101809120018160EE
:1006B0008093200180917A00846080937A008091F9
:1006C0007A00826080937A0080917A0081608093C2
:1006D0007A0080917A00806880937A001092C1003D
:1006E00061E084E35FDE61E083E35CDE61E085E39B
:1006F00059DE60E082E356DE61E088E153DE61E0CE
:1007000089E150DE61E087E14DDE60E086E14ADEAE
:1007100061E081E347DE61E080E344DE61E08AE19D
:1007200041DE61E08BE13EDE61E08CE13BDE61E0D9
:100730008DE138DE61E08FE135DE61E08EE132DEB1
:1007400061E087E101DE61E085E3FEDD60E084E3F6
:10075000FBDD60E083E3F8DD60E088E1F5DD60E08B
:1007600089E1F2DD60E081E3EFDD60E080E3ECDD74
:1007700060E08AE1E9DD60E08BE1E6DD60E08CE1EC
:10078000E3DD60E08DE1E0DD60E08FE1DDDD60E094
:100790008EE1DADDC0E0D0E061E08BE1D5DD61E043
:1007A00081E3D2DD61E08CE1CFDD61E08FE1CCDD82
:1007B00060E08AE1C9DD8FDE68EE73E080E090E002
:1007C00052DE60E08BE1C0DD61E080E3BDDD61E031
:1007D0008AE1BADD61E08CE1B7DD61E08FE1B4DD93
:1007E00060E081E3B1DD77DE68EE73E080E090E009
:1007F0003ADE60E080E3A8DD61E08DE1A5DD61E047
:1008000081E3A2DD61E08AE19FDD61E08FE19CDDB3
:1008100060E08CE199DD5FDE68EE73E080E090E0FF
:1008200022DE60E08DE190DD61E08EE18DDD61E052
:1008300081E38ADD61E08CE187DD61E08AE184DDCE
:1008400060E08FE181DD47DE68EE73E080E090E0FC
:100850000ADE60E08EE178DD209709F49DCF0E94EA
:1008600000009ACFEE0FFF1F881F8BBF0790F691F5
:08087000E02D1994F894FFCF6C
:00000001FF
